{
  "_format": "hh3-artifact-1",
  "contractName": "OrmuzConsortium",
  "sourceName": "contracts/OrmuzConsortium.sol",
  "abi": [
    {
      "inputs": [],
      "stateMutability": "nonpayable",
      "type": "constructor"
    },
    {
      "inputs": [],
      "name": "AccessControlBadConfirmation",
      "type": "error"
    },
    {
      "inputs": [
        {
          "internalType": "address",
          "name": "account",
          "type": "address"
        },
        {
          "internalType": "bytes32",
          "name": "neededRole",
          "type": "bytes32"
        }
      ],
      "name": "AccessControlUnauthorizedAccount",
      "type": "error"
    },
    {
      "inputs": [],
      "name": "DeadlineExpired",
      "type": "error"
    },
    {
      "inputs": [],
      "name": "DeadlineNotExpired",
      "type": "error"
    },
    {
      "inputs": [
        {
          "internalType": "address",
          "name": "spender",
          "type": "address"
        },
        {
          "internalType": "uint256",
          "name": "allowance",
          "type": "uint256"
        },
        {
          "internalType": "uint256",
          "name": "needed",
          "type": "uint256"
        }
      ],
      "name": "ERC20InsufficientAllowance",
      "type": "error"
    },
    {
      "inputs": [
        {
          "internalType": "address",
          "name": "sender",
          "type": "address"
        },
        {
          "internalType": "uint256",
          "name": "balance",
          "type": "uint256"
        },
        {
          "internalType": "uint256",
          "name": "needed",
          "type": "uint256"
        }
      ],
      "name": "ERC20InsufficientBalance",
      "type": "error"
    },
    {
      "inputs": [
        {
          "internalType": "address",
          "name": "approver",
          "type": "address"
        }
      ],
      "name": "ERC20InvalidApprover",
      "type": "error"
    },
    {
      "inputs": [
        {
          "internalType": "address",
          "name": "receiver",
          "type": "address"
        }
      ],
      "name": "ERC20InvalidReceiver",
      "type": "error"
    },
    {
      "inputs": [
        {
          "internalType": "address",
          "name": "sender",
          "type": "address"
        }
      ],
      "name": "ERC20InvalidSender",
      "type": "error"
    },
    {
      "inputs": [
        {
          "internalType": "address",
          "name": "spender",
          "type": "address"
        }
      ],
      "name": "ERC20InvalidSpender",
      "type": "error"
    },
    {
      "inputs": [],
      "name": "InsufficientBalance",
      "type": "error"
    },
    {
      "inputs": [],
      "name": "InvalidPriority",
      "type": "error"
    },
    {
      "inputs": [],
      "name": "MissionNotFound",
      "type": "error"
    },
    {
      "inputs": [],
      "name": "MissionNotPending",
      "type": "error"
    },
    {
      "inputs": [],
      "name": "ReentrancyGuardReentrantCall",
      "type": "error"
    },
    {
      "inputs": [],
      "name": "UnauthorizedClient",
      "type": "error"
    },
    {
      "anonymous": false,
      "inputs": [
        {
          "indexed": true,
          "internalType": "address",
          "name": "owner",
          "type": "address"
        },
        {
          "indexed": true,
          "internalType": "address",
          "name": "spender",
          "type": "address"
        },
        {
          "indexed": false,
          "internalType": "uint256",
          "name": "value",
          "type": "uint256"
        }
      ],
      "name": "Approval",
      "type": "event"
    },
    {
      "anonymous": false,
      "inputs": [
        {
          "indexed": true,
          "internalType": "uint256",
          "name": "missionId",
          "type": "uint256"
        },
        {
          "indexed": true,
          "internalType": "address",
          "name": "client",
          "type": "address"
        },
        {
          "indexed": false,
          "internalType": "uint256",
          "name": "amount",
          "type": "uint256"
        },
        {
          "indexed": false,
          "internalType": "uint8",
          "name": "prioridade",
          "type": "uint8"
        },
        {
          "indexed": false,
          "internalType": "uint256",
          "name": "deadline",
          "type": "uint256"
        }
      ],
      "name": "EscortPaid",
      "type": "event"
    },
    {
      "anonymous": false,
      "inputs": [
        {
          "indexed": true,
          "internalType": "uint256",
          "name": "missionId",
          "type": "uint256"
        },
        {
          "indexed": true,
          "internalType": "address",
          "name": "reporter",
          "type": "address"
        },
        {
          "indexed": false,
          "internalType": "uint256",
          "name": "amount",
          "type": "uint256"
        }
      ],
      "name": "MissionCompleted",
      "type": "event"
    },
    {
      "anonymous": false,
      "inputs": [
        {
          "indexed": true,
          "internalType": "uint256",
          "name": "missionId",
          "type": "uint256"
        },
        {
          "indexed": true,
          "internalType": "address",
          "name": "client",
          "type": "address"
        },
        {
          "indexed": false,
          "internalType": "uint256",
          "name": "amount",
          "type": "uint256"
        }
      ],
      "name": "RefundIssued",
      "type": "event"
    },
    {
      "anonymous": false,
      "inputs": [
        {
          "indexed": true,
          "internalType": "bytes32",
          "name": "role",
          "type": "bytes32"
        },
        {
          "indexed": true,
          "internalType": "bytes32",
          "name": "previousAdminRole",
          "type": "bytes32"
        },
        {
          "indexed": true,
          "internalType": "bytes32",
          "name": "newAdminRole",
          "type": "bytes32"
        }
      ],
      "name": "RoleAdminChanged",
      "type": "event"
    },
    {
      "anonymous": false,
      "inputs": [
        {
          "indexed": true,
          "internalType": "bytes32",
          "name": "role",
          "type": "bytes32"
        },
        {
          "indexed": true,
          "internalType": "address",
          "name": "account",
          "type": "address"
        },
        {
          "indexed": true,
          "internalType": "address",
          "name": "sender",
          "type": "address"
        }
      ],
      "name": "RoleGranted",
      "type": "event"
    },
    {
      "anonymous": false,
      "inputs": [
        {
          "indexed": true,
          "internalType": "bytes32",
          "name": "role",
          "type": "bytes32"
        },
        {
          "indexed": true,
          "internalType": "address",
          "name": "account",
          "type": "address"
        },
        {
          "indexed": true,
          "internalType": "address",
          "name": "sender",
          "type": "address"
        }
      ],
      "name": "RoleRevoked",
      "type": "event"
    },
    {
      "anonymous": false,
      "inputs": [
        {
          "indexed": true,
          "internalType": "address",
          "name": "from",
          "type": "address"
        },
        {
          "indexed": true,
          "internalType": "address",
          "name": "to",
          "type": "address"
        },
        {
          "indexed": false,
          "internalType": "uint256",
          "name": "value",
          "type": "uint256"
        }
      ],
      "name": "Transfer",
      "type": "event"
    },
    {
      "inputs": [],
      "name": "DEFAULT_ADMIN_ROLE",
      "outputs": [
        {
          "internalType": "bytes32",
          "name": "",
          "type": "bytes32"
        }
      ],
      "stateMutability": "view",
      "type": "function"
    },
    {
      "inputs": [],
      "name": "ESCOLTA_CRITICA",
      "outputs": [
        {
          "internalType": "uint256",
          "name": "",
          "type": "uint256"
        }
      ],
      "stateMutability": "view",
      "type": "function"
    },
    {
      "inputs": [],
      "name": "ESCOLTA_NORMAL",
      "outputs": [
        {
          "internalType": "uint256",
          "name": "",
          "type": "uint256"
        }
      ],
      "stateMutability": "view",
      "type": "function"
    },
    {
      "inputs": [],
      "name": "MINTER_ROLE",
      "outputs": [
        {
          "internalType": "bytes32",
          "name": "",
          "type": "bytes32"
        }
      ],
      "stateMutability": "view",
      "type": "function"
    },
    {
      "inputs": [],
      "name": "MISSION_TIMEOUT",
      "outputs": [
        {
          "internalType": "uint256",
          "name": "",
          "type": "uint256"
        }
      ],
      "stateMutability": "view",
      "type": "function"
    },
    {
      "inputs": [],
      "name": "REPORTER_ROLE",
      "outputs": [
        {
          "internalType": "bytes32",
          "name": "",
          "type": "bytes32"
        }
      ],
      "stateMutability": "view",
      "type": "function"
    },
    {
      "inputs": [
        {
          "internalType": "address",
          "name": "owner",
          "type": "address"
        },
        {
          "internalType": "address",
          "name": "spender",
          "type": "address"
        }
      ],
      "name": "allowance",
      "outputs": [
        {
          "internalType": "uint256",
          "name": "",
          "type": "uint256"
        }
      ],
      "stateMutability": "view",
      "type": "function"
    },
    {
      "inputs": [
        {
          "internalType": "address",
          "name": "spender",
          "type": "address"
        },
        {
          "internalType": "uint256",
          "name": "value",
          "type": "uint256"
        }
      ],
      "name": "approve",
      "outputs": [
        {
          "internalType": "bool",
          "name": "",
          "type": "bool"
        }
      ],
      "stateMutability": "nonpayable",
      "type": "function"
    },
    {
      "inputs": [
        {
          "internalType": "address",
          "name": "account",
          "type": "address"
        }
      ],
      "name": "balanceOf",
      "outputs": [
        {
          "internalType": "uint256",
          "name": "",
          "type": "uint256"
        }
      ],
      "stateMutability": "view",
      "type": "function"
    },
    {
      "inputs": [],
      "name": "decimals",
      "outputs": [
        {
          "internalType": "uint8",
          "name": "",
          "type": "uint8"
        }
      ],
      "stateMutability": "view",
      "type": "function"
    },
    {
      "inputs": [
        {
          "internalType": "bytes32",
          "name": "role",
          "type": "bytes32"
        }
      ],
      "name": "getRoleAdmin",
      "outputs": [
        {
          "internalType": "bytes32",
          "name": "",
          "type": "bytes32"
        }
      ],
      "stateMutability": "view",
      "type": "function"
    },
    {
      "inputs": [
        {
          "internalType": "bytes32",
          "name": "role",
          "type": "bytes32"
        },
        {
          "internalType": "address",
          "name": "account",
          "type": "address"
        }
      ],
      "name": "grantRole",
      "outputs": [],
      "stateMutability": "nonpayable",
      "type": "function"
    },
    {
      "inputs": [
        {
          "internalType": "bytes32",
          "name": "role",
          "type": "bytes32"
        },
        {
          "internalType": "address",
          "name": "account",
          "type": "address"
        }
      ],
      "name": "hasRole",
      "outputs": [
        {
          "internalType": "bool",
          "name": "",
          "type": "bool"
        }
      ],
      "stateMutability": "view",
      "type": "function"
    },
    {
      "inputs": [
        {
          "internalType": "address",
          "name": "to",
          "type": "address"
        },
        {
          "internalType": "uint256",
          "name": "amount",
          "type": "uint256"
        }
      ],
      "name": "mint",
      "outputs": [],
      "stateMutability": "nonpayable",
      "type": "function"
    },
    {
      "inputs": [
        {
          "internalType": "uint256",
          "name": "",
          "type": "uint256"
        }
      ],
      "name": "missions",
      "outputs": [
        {
          "internalType": "uint256",
          "name": "id",
          "type": "uint256"
        },
        {
          "internalType": "address",
          "name": "client",
          "type": "address"
        },
        {
          "internalType": "uint8",
          "name": "prioridade",
          "type": "uint8"
        },
        {
          "internalType": "uint256",
          "name": "escrowAmount",
          "type": "uint256"
        },
        {
          "internalType": "uint256",
          "name": "createdAt",
          "type": "uint256"
        },
        {
          "internalType": "uint256",
          "name": "deadline",
          "type": "uint256"
        },
        {
          "internalType": "enum OrmuzConsortium.MissionStatus",
          "name": "status",
          "type": "uint8"
        },
        {
          "internalType": "address",
          "name": "reporter",
          "type": "address"
        },
        {
          "internalType": "string",
          "name": "reportData",
          "type": "string"
        }
      ],
      "stateMutability": "view",
      "type": "function"
    },
    {
      "inputs": [],
      "name": "name",
      "outputs": [
        {
          "internalType": "string",
          "name": "",
          "type": "string"
        }
      ],
      "stateMutability": "view",
      "type": "function"
    },
    {
      "inputs": [
        {
          "internalType": "uint8",
          "name": "prioridade",
          "type": "uint8"
        }
      ],
      "name": "payForEscort",
      "outputs": [
        {
          "internalType": "uint256",
          "name": "missionId",
          "type": "uint256"
        }
      ],
      "stateMutability": "nonpayable",
      "type": "function"
    },
    {
      "inputs": [
        {
          "internalType": "uint256",
          "name": "missionId",
          "type": "uint256"
        }
      ],
      "name": "reclamarReembolso",
      "outputs": [],
      "stateMutability": "nonpayable",
      "type": "function"
    },
    {
      "inputs": [
        {
          "internalType": "uint256",
          "name": "missionId",
          "type": "uint256"
        },
        {
          "internalType": "string",
          "name": "droneId",
          "type": "string"
        },
        {
          "internalType": "string",
          "name": "coordinates",
          "type": "string"
        },
        {
          "internalType": "string",
          "name": "incidentStatus",
          "type": "string"
        }
      ],
      "name": "registerMissionReport",
      "outputs": [],
      "stateMutability": "nonpayable",
      "type": "function"
    },
    {
      "inputs": [
        {
          "internalType": "bytes32",
          "name": "role",
          "type": "bytes32"
        },
        {
          "internalType": "address",
          "name": "callerConfirmation",
          "type": "address"
        }
      ],
      "name": "renounceRole",
      "outputs": [],
      "stateMutability": "nonpayable",
      "type": "function"
    },
    {
      "inputs": [
        {
          "internalType": "bytes32",
          "name": "role",
          "type": "bytes32"
        },
        {
          "internalType": "address",
          "name": "account",
          "type": "address"
        }
      ],
      "name": "revokeRole",
      "outputs": [],
      "stateMutability": "nonpayable",
      "type": "function"
    },
    {
      "inputs": [
        {
          "internalType": "bytes4",
          "name": "interfaceId",
          "type": "bytes4"
        }
      ],
      "name": "supportsInterface",
      "outputs": [
        {
          "internalType": "bool",
          "name": "",
          "type": "bool"
        }
      ],
      "stateMutability": "view",
      "type": "function"
    },
    {
      "inputs": [],
      "name": "symbol",
      "outputs": [
        {
          "internalType": "string",
          "name": "",
          "type": "string"
        }
      ],
      "stateMutability": "view",
      "type": "function"
    },
    {
      "inputs": [],
      "name": "totalEscrowLocked",
      "outputs": [
        {
          "internalType": "uint256",
          "name": "",
          "type": "uint256"
        }
      ],
      "stateMutability": "view",
      "type": "function"
    },
    {
      "inputs": [],
      "name": "totalSupply",
      "outputs": [
        {
          "internalType": "uint256",
          "name": "",
          "type": "uint256"
        }
      ],
      "stateMutability": "view",
      "type": "function"
    },
    {
      "inputs": [
        {
          "internalType": "address",
          "name": "to",
          "type": "address"
        },
        {
          "internalType": "uint256",
          "name": "value",
          "type": "uint256"
        }
      ],
      "name": "transfer",
      "outputs": [
        {
          "internalType": "bool",
          "name": "",
          "type": "bool"
        }
      ],
      "stateMutability": "nonpayable",
      "type": "function"
    },
    {
      "inputs": [
        {
          "internalType": "address",
          "name": "from",
          "type": "address"
        },
        {
          "internalType": "address",
          "name": "to",
          "type": "address"
        },
        {
          "internalType": "uint256",
          "name": "value",
          "type": "uint256"
        }
      ],
      "name": "transferFrom",
      "outputs": [
        {
          "internalType": "bool",
          "name": "",
          "type": "bool"
        }
      ],
      "stateMutability": "nonpayable",
      "type": "function"
    },
    {
      "inputs": [],
      "name": "treasury",
      "outputs": [
        {
          "internalType": "address",
          "name": "",
          "type": "address"
        }
      ],
      "stateMutability": "view",
      "type": "function"
    }
  ],
  "bytecode": "0x608060405234801561000f575f5ffd5b506040518060400160405280601381526020017f4372656469746f204f7065726163696f6e616c00000000000000000000000000815250604051806040016040528060038152602001624f504360e81b81525081600390816100719190610282565b50600461007e8282610282565b505050600161009761009461011960201b60201c565b90565b55600880546001600160a01b031916339081179091556100b8905f9061013d565b506100e37f9f2df0fed2c77648de5860a4cc508cd0818c85b8b8a1ab4ceeef8d981c8956a63361013d565b5061010e7f3204c940063673962b481a0395619b3dbbd137589c419e993978c1c71bcf68ec3361013d565b50600160075561033c565b7f9b779b17422d0df92223018b32b4d1fa46e071723d6817e2486d003becc55f0090565b5f8281526005602090815260408083206001600160a01b038516845290915281205460ff166101e1575f8381526005602090815260408083206001600160a01b03861684529091529020805460ff191660011790556101993390565b6001600160a01b0316826001600160a01b0316847f2f8788117e7eff1d82e926ec794901d17c78024a50270940304540a733656f0d60405160405180910390a45060016101e4565b505f5b92915050565b634e487b7160e01b5f52604160045260245ffd5b600181811c9082168061021257607f821691505b60208210810361023057634e487b7160e01b5f52602260045260245ffd5b50919050565b601f82111561027d57805f5260205f20601f840160051c8101602085101561025b5750805b601f840160051c820191505b8181101561027a575f8155600101610267565b50505b505050565b81516001600160401b0381111561029b5761029b6101ea565b6102af816102a984546101fe565b84610236565b6020601f8211600181146102e1575f83156102ca5750848201515b5f19600385901b1c1916600184901b17845561027a565b5f84815260208120601f198516915b8281101561031057878501518255602094850194600190920191016102f0565b508482101561032d57868401515f19600387901b60f8161c191681555b50505050600190811b01905550565b6115db806103495f395ff3fe608060405234801561000f575f5ffd5b50600436106101bb575f3560e01c806361d027b3116100f357806391d1485411610093578063a9059cbb1161006e578063a9059cbb146103cc578063d5391393146103df578063d547741f14610406578063dd62ed3e14610419575f5ffd5b806391d14854146103aa57806395d89b41146103bd578063a217fddf146103c5575f5ffd5b80637c8e1a88116100ce5780637c8e1a88146103665780637df79b72146103795780637e97d7481461038c5780638ce187251461039b575f5ffd5b806361d027b31461030a5780636e331b681461033557806370a082311461033e575f5ffd5b80632c8fe5261161015e57806336568abe1161013957806336568abe146102b55780633f60d799146102c857806340c10f19146102ef5780634d00572114610302575f5ffd5b80632c8fe5261461026b5780632f2ff15d14610293578063313ce567146102a6575f5ffd5b80630ca69d7e116101995780630ca69d7e1461020f57806318160ddd1461022457806323b872dd14610236578063248a9ca314610249575f5ffd5b806301ffc9a7146101bf57806306fdde03146101e7578063095ea7b3146101fc575b5f5ffd5b6101d26101cd36600461108f565b610451565b60405190151581526020015b60405180910390f35b6101ef610487565b6040516101de91906110eb565b6101d261020a366004611113565b610517565b61022261021d366004611180565b61052e565b005b6002545b6040519081526020016101de565b6101d2610244366004611228565b6106e5565b610228610257366004611262565b5f9081526005602052604090206001015490565b61027e610279366004611262565b610708565b6040516101de9998979695949392919061128d565b6102226102a1366004611316565b6107e8565b604051601281526020016101de565b6102226102c3366004611316565b610812565b6102287f3204c940063673962b481a0395619b3dbbd137589c419e993978c1c71bcf68ec81565b6102226102fd366004611113565b61084a565b610228601e81565b60085461031d906001600160a01b031681565b6040516001600160a01b0390911681526020016101de565b61022860065481565b61022861034c366004611340565b6001600160a01b03165f9081526020819052604090205490565b610222610374366004611262565b61087e565b610228610387366004611359565b6109ee565b610228678ac7230489e8000081565b610228674563918244f4000081565b6101d26103b8366004611316565b610b85565b6101ef610baf565b6102285f81565b6101d26103da366004611113565b610bbe565b6102287f9f2df0fed2c77648de5860a4cc508cd0818c85b8b8a1ab4ceeef8d981c8956a681565b610222610414366004611316565b610bcb565b610228610427366004611379565b6001600160a01b039182165f90815260016020908152604080832093909416825291909152205490565b5f6001600160e01b03198216637965db0b60e01b148061048157506301ffc9a760e01b6001600160e01b03198316145b92915050565b606060038054610496906113a1565b80601f01602080910402602001604051908101604052809291908181526020018280546104c2906113a1565b801561050d5780601f106104e45761010080835404028352916020019161050d565b820191905f5260205f20905b8154815290600101906020018083116104f057829003601f168201915b5050505050905090565b5f33610524818585610bef565b5060019392505050565b7f3204c940063673962b481a0395619b3dbbd137589c419e993978c1c71bcf68ec61055881610bfc565b610560610c06565b5f888152600960205260408120805490910361058f57604051631c1e660560e01b815260040160405180910390fd5b5f600582015460ff1660028111156105a9576105a9611279565b146105c65760405162eb863760e61b815260040160405180910390fd5b80600401544211156105eb57604051631ab7da6b60e01b815260040160405180910390fd5b60058101805461010033026001600160a81b0319909116176001179055604051610623908990899089908990899089906020016113d9565b6040516020818303038152906040528160060190816106429190611478565b50806002015460065f8282546106589190611547565b9091555050600854600282015461067c9130916001600160a01b0390911690610c21565b336001600160a01b0316897f369260990bee183b35114396b189aad17928064fcd9755e1b794808d1f86707b83600201546040516106bc91815260200190565b60405180910390a3506106db60015f5160206115865f395f51905f5255565b5050505050505050565b5f336106f2858285610c83565b6106fd858585610c21565b506001949350505050565b60096020525f9081526040902080546001820154600283015460038401546004850154600586015460068701805496976001600160a01b038088169860ff600160a01b90990489169885169461010090049091169290610767906113a1565b80601f0160208091040260200160405190810160405280929190818152602001828054610793906113a1565b80156107de5780601f106107b5576101008083540402835291602001916107de565b820191905f5260205f20905b8154815290600101906020018083116107c157829003601f168201915b5050505050905089565b5f8281526005602052604090206001015461080281610bfc565b61080c8383610cf9565b50505050565b6001600160a01b038116331461083b5760405163334bd91960e11b815260040160405180910390fd5b6108458282610d8a565b505050565b7f9f2df0fed2c77648de5860a4cc508cd0818c85b8b8a1ab4ceeef8d981c8956a661087481610bfc565b6108458383610df5565b610886610c06565b5f81815260096020526040812080549091036108b557604051631c1e660560e01b815260040160405180910390fd5b5f600582015460ff1660028111156108cf576108cf611279565b146108ec5760405162eb863760e61b815260040160405180910390fd5b806004015442116109105760405163ee371c4560e01b815260040160405180910390fd5b60018101546001600160a01b0316331461093d57604051630ec1e4cd60e41b815260040160405180910390fd5b60058101805460ff19166002908117909155810154600680545f90610963908490611547565b9091555050600181015460028201546109899130916001600160a01b0390911690610c21565b600181015460028201546040519081526001600160a01b039091169083907f7a482fdeb6bc9a1376f597068a214a7a39472bb2eff1b8cad21ba04f49ddca1b9060200160405180910390a3506109eb60015f5160206115865f395f51905f5255565b50565b5f6109f7610c06565b8160ff16600114158015610a0f57508160ff16600214155b15610a2d57604051630357013b60e51b815260040160405180910390fd5b5f8260ff16600114610a4757678ac7230489e80000610a51565b674563918244f400005b335f90815260208190526040902054909150811115610a8357604051631e9acf1760e31b815260040160405180910390fd5b8060065f828254610a94919061155a565b909155505060078054905f610aa88361156d565b909155505f8181526009602052604090208181556001810180546001600160a81b0319163360ff60a01b191617600160a01b60ff88160217905560028101839055426003820181905591935090610b0190601e9061155a565b600482015560058101805460ff19169055610b1d333084610c21565b60048101546040805184815260ff871660208201528082019290925251339185917f950b0f3f4973d015b461663fa9e9c8c419edd7982acaa0689d579cad7131fe2b9181900360600190a35050610b8060015f5160206115865f395f51905f5255565b919050565b5f9182526005602090815260408084206001600160a01b0393909316845291905290205460ff1690565b606060048054610496906113a1565b5f33610524818585610c21565b5f82815260056020526040902060010154610be581610bfc565b61080c8383610d8a565b6108458383836001610e2d565b6109eb8133610eff565b610c0e610f38565b60025f5160206115865f395f51905f5255565b6001600160a01b038316610c4f57604051634b637e8f60e11b81525f60048201526024015b60405180910390fd5b6001600160a01b038216610c785760405163ec442f0560e01b81525f6004820152602401610c46565b610845838383610f69565b6001600160a01b038381165f908152600160209081526040808320938616835292905220545f1981101561080c5781811015610ceb57604051637dc7a0d960e11b81526001600160a01b03841660048201526024810182905260448101839052606401610c46565b61080c84848484035f610e2d565b5f610d048383610b85565b610d83575f8381526005602090815260408083206001600160a01b03861684529091529020805460ff19166001179055610d3b3390565b6001600160a01b0316826001600160a01b0316847f2f8788117e7eff1d82e926ec794901d17c78024a50270940304540a733656f0d60405160405180910390a4506001610481565b505f610481565b5f610d958383610b85565b15610d83575f8381526005602090815260408083206001600160a01b0386168085529252808320805460ff1916905551339286917ff6391f5c32d9c69d2a47ea670b442974b53935d1edc7fd64eb21e047a839171b9190a4506001610481565b6001600160a01b038216610e1e5760405163ec442f0560e01b81525f6004820152602401610c46565b610e295f8383610f69565b5050565b6001600160a01b038416610e565760405163e602df0560e01b81525f6004820152602401610c46565b6001600160a01b038316610e7f57604051634a1406b160e11b81525f6004820152602401610c46565b6001600160a01b038085165f908152600160209081526040808320938716835292905220829055801561080c57826001600160a01b0316846001600160a01b03167f8c5be1e5ebec7d5bd14f71427d1e84f3dd0314c0f7b2291e5b200ac8c7c3b92584604051610ef191815260200190565b60405180910390a350505050565b610f098282610b85565b610e295760405163e2517d3f60e01b81526001600160a01b038216600482015260248101839052604401610c46565b5f5160206115865f395f51905f5254600203610f6757604051633ee5aeb560e01b815260040160405180910390fd5b565b6001600160a01b038316610f93578060025f828254610f88919061155a565b909155506110039050565b6001600160a01b0383165f9081526020819052604090205481811015610fe55760405163391434e360e21b81526001600160a01b03851660048201526024810182905260448101839052606401610c46565b6001600160a01b0384165f9081526020819052604090209082900390555b6001600160a01b03821661101f5760028054829003905561103d565b6001600160a01b0382165f9081526020819052604090208054820190555b816001600160a01b0316836001600160a01b03167fddf252ad1be2c89b69c2b068fc378daa952ba7f163c4a11628f55a4df523b3ef8360405161108291815260200190565b60405180910390a3505050565b5f6020828403121561109f575f5ffd5b81356001600160e01b0319811681146110b6575f5ffd5b9392505050565b5f81518084528060208401602086015e5f602082860101526020601f19601f83011685010191505092915050565b602081525f6110b660208301846110bd565b80356001600160a01b0381168114610b80575f5ffd5b5f5f60408385031215611124575f5ffd5b61112d836110fd565b946020939093013593505050565b5f5f83601f84011261114b575f5ffd5b50813567ffffffffffffffff811115611162575f5ffd5b602083019150836020828501011115611179575f5ffd5b9250929050565b5f5f5f5f5f5f5f6080888a031215611196575f5ffd5b87359650602088013567ffffffffffffffff8111156111b3575f5ffd5b6111bf8a828b0161113b565b909750955050604088013567ffffffffffffffff8111156111de575f5ffd5b6111ea8a828b0161113b565b909550935050606088013567ffffffffffffffff811115611209575f5ffd5b6112158a828b0161113b565b989b979a50959850939692959293505050565b5f5f5f6060848603121561123a575f5ffd5b611243846110fd565b9250611251602085016110fd565b929592945050506040919091013590565b5f60208284031215611272575f5ffd5b5035919050565b634e487b7160e01b5f52602160045260245ffd5b8981526001600160a01b038916602082015260ff88166040820152606081018790526080810186905260a081018590525f600385106112da57634e487b7160e01b5f52602160045260245ffd5b60c082018590526001600160a01b03841660e08301526101206101008301819052611307908301846110bd565b9b9a5050505050505050505050565b5f5f60408385031215611327575f5ffd5b82359150611337602084016110fd565b90509250929050565b5f60208284031215611350575f5ffd5b6110b6826110fd565b5f60208284031215611369575f5ffd5b813560ff811681146110b6575f5ffd5b5f5f6040838503121561138a575f5ffd5b611393836110fd565b9150611337602084016110fd565b600181811c908216806113b557607f821691505b6020821081036113d357634e487b7160e01b5f52602260045260245ffd5b50919050565b858782375f868201601f60fa1b815285876001830137601f60fa1b600191870191820152838560028301375f930160020192835250909695505050505050565b634e487b7160e01b5f52604160045260245ffd5b601f82111561084557805f5260205f20601f840160051c810160208510156114525750805b601f840160051c820191505b81811015611471575f815560010161145e565b5050505050565b815167ffffffffffffffff81111561149257611492611419565b6114a6816114a084546113a1565b8461142d565b6020601f8211600181146114d8575f83156114c15750848201515b5f19600385901b1c1916600184901b178455611471565b5f84815260208120601f198516915b8281101561150757878501518255602094850194600190920191016114e7565b508482101561152457868401515f19600387901b60f8161c191681555b50505050600190811b01905550565b634e487b7160e01b5f52601160045260245ffd5b8181038181111561048157610481611533565b8082018082111561048157610481611533565b5f6001820161157e5761157e611533565b506001019056fe9b779b17422d0df92223018b32b4d1fa46e071723d6817e2486d003becc55f00a264697066735822122047eb3a0e9c09dab0d80917ae537da747ae7a2c7dff799fcfcc4fc650ff4dd6bb64736f6c634300081c0033",
  "linkReferences": {},
  "deployedLinkReferences": {},
  "immutableReferences": {},
  "inputSourceName": "project/contracts/OrmuzConsortium.sol",
  "buildInfoId": "solc-0_8_28-1889078a5fc2b05267e3549942ad7be1279fe051"
}