{
  "_format": "hh3-artifact-1",
  "contractName": "OrmuzConsortium",
  "sourceName": "contracts/OrmuzConsortium.sol",
  "abi": [
    {
      "inputs": [],
      "stateMutability": "nonpayable",
      "type": "constructor"
    },
    {
      "inputs": [],
      "name": "AccessControlBadConfirmation",
      "type": "error"
    },
    {
      "inputs": [
        {
          "internalType": "address",
          "name": "account",
          "type": "address"
        },
        {
          "internalType": "bytes32",
          "name": "neededRole",
          "type": "bytes32"
        }
      ],
      "name": "AccessControlUnauthorizedAccount",
      "type": "error"
    },
    {
      "inputs": [],
      "name": "DeadlineExpired",
      "type": "error"
    },
    {
      "inputs": [],
      "name": "DeadlineNotExpired",
      "type": "error"
    },
    {
      "inputs": [
        {
          "internalType": "address",
          "name": "spender",
          "type": "address"
        },
        {
          "internalType": "uint256",
          "name": "allowance",
          "type": "uint256"
        },
        {
          "internalType": "uint256",
          "name": "needed",
          "type": "uint256"
        }
      ],
      "name": "ERC20InsufficientAllowance",
      "type": "error"
    },
    {
      "inputs": [
        {
          "internalType": "address",
          "name": "sender",
          "type": "address"
        },
        {
          "internalType": "uint256",
          "name": "balance",
          "type": "uint256"
        },
        {
          "internalType": "uint256",
          "name": "needed",
          "type": "uint256"
        }
      ],
      "name": "ERC20InsufficientBalance",
      "type": "error"
    },
    {
      "inputs": [
        {
          "internalType": "address",
          "name": "approver",
          "type": "address"
        }
      ],
      "name": "ERC20InvalidApprover",
      "type": "error"
    },
    {
      "inputs": [
        {
          "internalType": "address",
          "name": "receiver",
          "type": "address"
        }
      ],
      "name": "ERC20InvalidReceiver",
      "type": "error"
    },
    {
      "inputs": [
        {
          "internalType": "address",
          "name": "sender",
          "type": "address"
        }
      ],
      "name": "ERC20InvalidSender",
      "type": "error"
    },
    {
      "inputs": [
        {
          "internalType": "address",
          "name": "spender",
          "type": "address"
        }
      ],
      "name": "ERC20InvalidSpender",
      "type": "error"
    },
    {
      "inputs": [],
      "name": "InsufficientBalance",
      "type": "error"
    },
    {
      "inputs": [],
      "name": "InvalidPriority",
      "type": "error"
    },
    {
      "inputs": [],
      "name": "MissionNotFound",
      "type": "error"
    },
    {
      "inputs": [],
      "name": "MissionNotPending",
      "type": "error"
    },
    {
      "inputs": [],
      "name": "ReentrancyGuardReentrantCall",
      "type": "error"
    },
    {
      "inputs": [],
      "name": "UnauthorizedClient",
      "type": "error"
    },
    {
      "anonymous": false,
      "inputs": [
        {
          "indexed": true,
          "internalType": "address",
          "name": "owner",
          "type": "address"
        },
        {
          "indexed": true,
          "internalType": "address",
          "name": "spender",
          "type": "address"
        },
        {
          "indexed": false,
          "internalType": "uint256",
          "name": "value",
          "type": "uint256"
        }
      ],
      "name": "Approval",
      "type": "event"
    },
    {
      "anonymous": false,
      "inputs": [
        {
          "indexed": true,
          "internalType": "uint256",
          "name": "missionId",
          "type": "uint256"
        },
        {
          "indexed": true,
          "internalType": "address",
          "name": "client",
          "type": "address"
        },
        {
          "indexed": false,
          "internalType": "uint256",
          "name": "amount",
          "type": "uint256"
        },
        {
          "indexed": false,
          "internalType": "uint8",
          "name": "prioridade",
          "type": "uint8"
        },
        {
          "indexed": false,
          "internalType": "uint256",
          "name": "deadline",
          "type": "uint256"
        }
      ],
      "name": "EscortPaid",
      "type": "event"
    },
    {
      "anonymous": false,
      "inputs": [
        {
          "indexed": true,
          "internalType": "uint256",
          "name": "missionId",
          "type": "uint256"
        },
        {
          "indexed": true,
          "internalType": "address",
          "name": "reporter",
          "type": "address"
        },
        {
          "indexed": false,
          "internalType": "uint256",
          "name": "amount",
          "type": "uint256"
        }
      ],
      "name": "MissionCompleted",
      "type": "event"
    },
    {
      "anonymous": false,
      "inputs": [
        {
          "indexed": true,
          "internalType": "uint256",
          "name": "missionId",
          "type": "uint256"
        },
        {
          "indexed": true,
          "internalType": "address",
          "name": "client",
          "type": "address"
        },
        {
          "indexed": false,
          "internalType": "uint256",
          "name": "amount",
          "type": "uint256"
        }
      ],
      "name": "RefundIssued",
      "type": "event"
    },
    {
      "anonymous": false,
      "inputs": [
        {
          "indexed": true,
          "internalType": "bytes32",
          "name": "role",
          "type": "bytes32"
        },
        {
          "indexed": true,
          "internalType": "bytes32",
          "name": "previousAdminRole",
          "type": "bytes32"
        },
        {
          "indexed": true,
          "internalType": "bytes32",
          "name": "newAdminRole",
          "type": "bytes32"
        }
      ],
      "name": "RoleAdminChanged",
      "type": "event"
    },
    {
      "anonymous": false,
      "inputs": [
        {
          "indexed": true,
          "internalType": "bytes32",
          "name": "role",
          "type": "bytes32"
        },
        {
          "indexed": true,
          "internalType": "address",
          "name": "account",
          "type": "address"
        },
        {
          "indexed": true,
          "internalType": "address",
          "name": "sender",
          "type": "address"
        }
      ],
      "name": "RoleGranted",
      "type": "event"
    },
    {
      "anonymous": false,
      "inputs": [
        {
          "indexed": true,
          "internalType": "bytes32",
          "name": "role",
          "type": "bytes32"
        },
        {
          "indexed": true,
          "internalType": "address",
          "name": "account",
          "type": "address"
        },
        {
          "indexed": true,
          "internalType": "address",
          "name": "sender",
          "type": "address"
        }
      ],
      "name": "RoleRevoked",
      "type": "event"
    },
    {
      "anonymous": false,
      "inputs": [
        {
          "indexed": true,
          "internalType": "address",
          "name": "from",
          "type": "address"
        },
        {
          "indexed": true,
          "internalType": "address",
          "name": "to",
          "type": "address"
        },
        {
          "indexed": false,
          "internalType": "uint256",
          "name": "value",
          "type": "uint256"
        }
      ],
      "name": "Transfer",
      "type": "event"
    },
    {
      "inputs": [],
      "name": "DEFAULT_ADMIN_ROLE",
      "outputs": [
        {
          "internalType": "bytes32",
          "name": "",
          "type": "bytes32"
        }
      ],
      "stateMutability": "view",
      "type": "function"
    },
    {
      "inputs": [],
      "name": "ESCOLTA_CRITICA",
      "outputs": [
        {
          "internalType": "uint256",
          "name": "",
          "type": "uint256"
        }
      ],
      "stateMutability": "view",
      "type": "function"
    },
    {
      "inputs": [],
      "name": "ESCOLTA_NORMAL",
      "outputs": [
        {
          "internalType": "uint256",
          "name": "",
          "type": "uint256"
        }
      ],
      "stateMutability": "view",
      "type": "function"
    },
    {
      "inputs": [],
      "name": "MINTER_ROLE",
      "outputs": [
        {
          "internalType": "bytes32",
          "name": "",
          "type": "bytes32"
        }
      ],
      "stateMutability": "view",
      "type": "function"
    },
    {
      "inputs": [],
      "name": "MISSION_TIMEOUT",
      "outputs": [
        {
          "internalType": "uint256",
          "name": "",
          "type": "uint256"
        }
      ],
      "stateMutability": "view",
      "type": "function"
    },
    {
      "inputs": [],
      "name": "REPORTER_ROLE",
      "outputs": [
        {
          "internalType": "bytes32",
          "name": "",
          "type": "bytes32"
        }
      ],
      "stateMutability": "view",
      "type": "function"
    },
    {
      "inputs": [
        {
          "internalType": "address",
          "name": "owner",
          "type": "address"
        },
        {
          "internalType": "address",
          "name": "spender",
          "type": "address"
        }
      ],
      "name": "allowance",
      "outputs": [
        {
          "internalType": "uint256",
          "name": "",
          "type": "uint256"
        }
      ],
      "stateMutability": "view",
      "type": "function"
    },
    {
      "inputs": [
        {
          "internalType": "address",
          "name": "spender",
          "type": "address"
        },
        {
          "internalType": "uint256",
          "name": "value",
          "type": "uint256"
        }
      ],
      "name": "approve",
      "outputs": [
        {
          "internalType": "bool",
          "name": "",
          "type": "bool"
        }
      ],
      "stateMutability": "nonpayable",
      "type": "function"
    },
    {
      "inputs": [
        {
          "internalType": "address",
          "name": "account",
          "type": "address"
        }
      ],
      "name": "balanceOf",
      "outputs": [
        {
          "internalType": "uint256",
          "name": "",
          "type": "uint256"
        }
      ],
      "stateMutability": "view",
      "type": "function"
    },
    {
      "inputs": [],
      "name": "decimals",
      "outputs": [
        {
          "internalType": "uint8",
          "name": "",
          "type": "uint8"
        }
      ],
      "stateMutability": "view",
      "type": "function"
    },
    {
      "inputs": [
        {
          "internalType": "bytes32",
          "name": "role",
          "type": "bytes32"
        }
      ],
      "name": "getRoleAdmin",
      "outputs": [
        {
          "internalType": "bytes32",
          "name": "",
          "type": "bytes32"
        }
      ],
      "stateMutability": "view",
      "type": "function"
    },
    {
      "inputs": [
        {
          "internalType": "bytes32",
          "name": "role",
          "type": "bytes32"
        },
        {
          "internalType": "address",
          "name": "account",
          "type": "address"
        }
      ],
      "name": "grantRole",
      "outputs": [],
      "stateMutability": "nonpayable",
      "type": "function"
    },
    {
      "inputs": [
        {
          "internalType": "bytes32",
          "name": "role",
          "type": "bytes32"
        },
        {
          "internalType": "address",
          "name": "account",
          "type": "address"
        }
      ],
      "name": "hasRole",
      "outputs": [
        {
          "internalType": "bool",
          "name": "",
          "type": "bool"
        }
      ],
      "stateMutability": "view",
      "type": "function"
    },
    {
      "inputs": [
        {
          "internalType": "address",
          "name": "to",
          "type": "address"
        },
        {
          "internalType": "uint256",
          "name": "amount",
          "type": "uint256"
        }
      ],
      "name": "mint",
      "outputs": [],
      "stateMutability": "nonpayable",
      "type": "function"
    },
    {
      "inputs": [
        {
          "internalType": "uint256",
          "name": "",
          "type": "uint256"
        }
      ],
      "name": "missions",
      "outputs": [
        {
          "internalType": "uint256",
          "name": "id",
          "type": "uint256"
        },
        {
          "internalType": "address",
          "name": "client",
          "type": "address"
        },
        {
          "internalType": "uint8",
          "name": "prioridade",
          "type": "uint8"
        },
        {
          "internalType": "uint256",
          "name": "escrowAmount",
          "type": "uint256"
        },
        {
          "internalType": "uint256",
          "name": "createdAt",
          "type": "uint256"
        },
        {
          "internalType": "uint256",
          "name": "deadline",
          "type": "uint256"
        },
        {
          "internalType": "enum OrmuzConsortium.MissionStatus",
          "name": "status",
          "type": "uint8"
        },
        {
          "internalType": "address",
          "name": "reporter",
          "type": "address"
        },
        {
          "internalType": "string",
          "name": "reportData",
          "type": "string"
        }
      ],
      "stateMutability": "view",
      "type": "function"
    },
    {
      "inputs": [],
      "name": "name",
      "outputs": [
        {
          "internalType": "string",
          "name": "",
          "type": "string"
        }
      ],
      "stateMutability": "view",
      "type": "function"
    },
    {
      "inputs": [
        {
          "internalType": "uint8",
          "name": "prioridade",
          "type": "uint8"
        }
      ],
      "name": "payForEscort",
      "outputs": [
        {
          "internalType": "uint256",
          "name": "missionId",
          "type": "uint256"
        }
      ],
      "stateMutability": "nonpayable",
      "type": "function"
    },
    {
      "inputs": [
        {
          "internalType": "uint256",
          "name": "missionId",
          "type": "uint256"
        }
      ],
      "name": "reclamarReembolso",
      "outputs": [],
      "stateMutability": "nonpayable",
      "type": "function"
    },
    {
      "inputs": [
        {
          "internalType": "uint256",
          "name": "missionId",
          "type": "uint256"
        },
        {
          "internalType": "string",
          "name": "droneId",
          "type": "string"
        },
        {
          "internalType": "string",
          "name": "coordinates",
          "type": "string"
        },
        {
          "internalType": "string",
          "name": "incidentStatus",
          "type": "string"
        }
      ],
      "name": "registerMissionReport",
      "outputs": [],
      "stateMutability": "nonpayable",
      "type": "function"
    },
    {
      "inputs": [
        {
          "internalType": "bytes32",
          "name": "role",
          "type": "bytes32"
        },
        {
          "internalType": "address",
          "name": "callerConfirmation",
          "type": "address"
        }
      ],
      "name": "renounceRole",
      "outputs": [],
      "stateMutability": "nonpayable",
      "type": "function"
    },
    {
      "inputs": [
        {
          "internalType": "bytes32",
          "name": "role",
          "type": "bytes32"
        },
        {
          "internalType": "address",
          "name": "account",
          "type": "address"
        }
      ],
      "name": "revokeRole",
      "outputs": [],
      "stateMutability": "nonpayable",
      "type": "function"
    },
    {
      "inputs": [
        {
          "internalType": "bytes4",
          "name": "interfaceId",
          "type": "bytes4"
        }
      ],
      "name": "supportsInterface",
      "outputs": [
        {
          "internalType": "bool",
          "name": "",
          "type": "bool"
        }
      ],
      "stateMutability": "view",
      "type": "function"
    },
    {
      "inputs": [],
      "name": "symbol",
      "outputs": [
        {
          "internalType": "string",
          "name": "",
          "type": "string"
        }
      ],
      "stateMutability": "view",
      "type": "function"
    },
    {
      "inputs": [],
      "name": "totalEscrowLocked",
      "outputs": [
        {
          "internalType": "uint256",
          "name": "",
          "type": "uint256"
        }
      ],
      "stateMutability": "view",
      "type": "function"
    },
    {
      "inputs": [],
      "name": "totalSupply",
      "outputs": [
        {
          "internalType": "uint256",
          "name": "",
          "type": "uint256"
        }
      ],
      "stateMutability": "view",
      "type": "function"
    },
    {
      "inputs": [
        {
          "internalType": "address",
          "name": "to",
          "type": "address"
        },
        {
          "internalType": "uint256",
          "name": "value",
          "type": "uint256"
        }
      ],
      "name": "transfer",
      "outputs": [
        {
          "internalType": "bool",
          "name": "",
          "type": "bool"
        }
      ],
      "stateMutability": "nonpayable",
      "type": "function"
    },
    {
      "inputs": [
        {
          "internalType": "address",
          "name": "from",
          "type": "address"
        },
        {
          "internalType": "address",
          "name": "to",
          "type": "address"
        },
        {
          "internalType": "uint256",
          "name": "value",
          "type": "uint256"
        }
      ],
      "name": "transferFrom",
      "outputs": [
        {
          "internalType": "bool",
          "name": "",
          "type": "bool"
        }
      ],
      "stateMutability": "nonpayable",
      "type": "function"
    },
    {
      "inputs": [],
      "name": "treasury",
      "outputs": [
        {
          "internalType": "address",
          "name": "",
          "type": "address"
        }
      ],
      "stateMutability": "view",
      "type": "function"
    }
  ],
  "bytecode": "0x608060405234801561000f575f5ffd5b506040518060400160405280601381526020017f4372656469746f204f7065726163696f6e616c00000000000000000000000000815250604051806040016040528060038152602001624f504360e81b81525081600390816100719190610282565b50600461007e8282610282565b505050600161009761009461011960201b60201c565b90565b55600880546001600160a01b031916339081179091556100b8905f9061013d565b506100e37f9f2df0fed2c77648de5860a4cc508cd0818c85b8b8a1ab4ceeef8d981c8956a63361013d565b5061010e7f3204c940063673962b481a0395619b3dbbd137589c419e993978c1c71bcf68ec3361013d565b50600160075561033c565b7f9b779b17422d0df92223018b32b4d1fa46e071723d6817e2486d003becc55f0090565b5f8281526005602090815260408083206001600160a01b038516845290915281205460ff166101e1575f8381526005602090815260408083206001600160a01b03861684529091529020805460ff191660011790556101993390565b6001600160a01b0316826001600160a01b0316847f2f8788117e7eff1d82e926ec794901d17c78024a50270940304540a733656f0d60405160405180910390a45060016101e4565b505f5b92915050565b634e487b7160e01b5f52604160045260245ffd5b600181811c9082168061021257607f821691505b60208210810361023057634e487b7160e01b5f52602260045260245ffd5b50919050565b601f82111561027d57805f5260205f20601f840160051c8101602085101561025b5750805b601f840160051c820191505b8181101561027a575f8155600101610267565b50505b505050565b81516001600160401b0381111561029b5761029b6101ea565b6102af816102a984546101fe565b84610236565b6020601f8211600181146102e1575f83156102ca5750848201515b5f19600385901b1c1916600184901b17845561027a565b5f84815260208120601f198516915b8281101561031057878501518255602094850194600190920191016102f0565b508482101561032d57868401515f19600387901b60f8161c191681555b50505050600190811b01905550565b6115d8806103495f395ff3fe608060405234801561000f575f5ffd5b50600436106101bb575f3560e01c806361d027b3116100f357806391d1485411610093578063a9059cbb1161006e578063a9059cbb146103cc578063d5391393146103df578063d547741f14610406578063dd62ed3e14610419575f5ffd5b806391d14854146103aa57806395d89b41146103bd578063a217fddf146103c5575f5ffd5b80637c8e1a88116100ce5780637c8e1a88146103665780637df79b72146103795780637e97d7481461038c5780638ce187251461039b575f5ffd5b806361d027b31461030a5780636e331b681461033557806370a082311461033e575f5ffd5b80632c8fe5261161015e57806336568abe1161013957806336568abe146102b55780633f60d799146102c857806340c10f19146102ef5780634d00572114610302575f5ffd5b80632c8fe5261461026b5780632f2ff15d14610293578063313ce567146102a6575f5ffd5b80630ca69d7e116101995780630ca69d7e1461020f57806318160ddd1461022457806323b872dd14610236578063248a9ca314610249575f5ffd5b806301ffc9a7146101bf57806306fdde03146101e7578063095ea7b3146101fc575b5f5ffd5b6101d26101cd36600461108c565b610451565b60405190151581526020015b60405180910390f35b6101ef610487565b6040516101de91906110e8565b6101d261020a366004611110565b610517565b61022261021d36600461117d565b61052e565b005b6002545b6040519081526020016101de565b6101d2610244366004611225565b6106e5565b61022861025736600461125f565b5f9081526005602052604090206001015490565b61027e61027936600461125f565b610708565b6040516101de9998979695949392919061128a565b6102226102a1366004611313565b6107e8565b604051601281526020016101de565b6102226102c3366004611313565b610812565b6102287f3204c940063673962b481a0395619b3dbbd137589c419e993978c1c71bcf68ec81565b6102226102fd366004611110565b61084a565b610228601e81565b60085461031d906001600160a01b031681565b6040516001600160a01b0390911681526020016101de565b61022860065481565b61022861034c36600461133d565b6001600160a01b03165f9081526020819052604090205490565b61022261037436600461125f565b61087e565b610228610387366004611356565b6109ee565b610228678ac7230489e8000081565b610228674563918244f4000081565b6101d26103b8366004611313565b610b82565b6101ef610bac565b6102285f81565b6101d26103da366004611110565b610bbb565b6102287f9f2df0fed2c77648de5860a4cc508cd0818c85b8b8a1ab4ceeef8d981c8956a681565b610222610414366004611313565b610bc8565b610228610427366004611376565b6001600160a01b039182165f90815260016020908152604080832093909416825291909152205490565b5f6001600160e01b03198216637965db0b60e01b148061048157506301ffc9a760e01b6001600160e01b03198316145b92915050565b6060600380546104969061139e565b80601f01602080910402602001604051908101604052809291908181526020018280546104c29061139e565b801561050d5780601f106104e45761010080835404028352916020019161050d565b820191905f5260205f20905b8154815290600101906020018083116104f057829003601f168201915b5050505050905090565b5f33610524818585610bec565b5060019392505050565b7f3204c940063673962b481a0395619b3dbbd137589c419e993978c1c71bcf68ec61055881610bf9565b610560610c03565b5f888152600960205260408120805490910361058f57604051631c1e660560e01b815260040160405180910390fd5b5f600582015460ff1660028111156105a9576105a9611276565b146105c65760405162eb863760e61b815260040160405180910390fd5b80600401544211156105eb57604051631ab7da6b60e01b815260040160405180910390fd5b60058101805461010033026001600160a81b0319909116176001179055604051610623908990899089908990899089906020016113d6565b6040516020818303038152906040528160060190816106429190611475565b50806002015460065f8282546106589190611544565b9091555050600854600282015461067c9130916001600160a01b0390911690610c1e565b336001600160a01b0316897f369260990bee183b35114396b189aad17928064fcd9755e1b794808d1f86707b83600201546040516106bc91815260200190565b60405180910390a3506106db60015f5160206115835f395f51905f5255565b5050505050505050565b5f336106f2858285610c80565b6106fd858585610c1e565b506001949350505050565b60096020525f9081526040902080546001820154600283015460038401546004850154600586015460068701805496976001600160a01b038088169860ff600160a01b909904891698851694610100900490911692906107679061139e565b80601f01602080910402602001604051908101604052809291908181526020018280546107939061139e565b80156107de5780601f106107b5576101008083540402835291602001916107de565b820191905f5260205f20905b8154815290600101906020018083116107c157829003601f168201915b5050505050905089565b5f8281526005602052604090206001015461080281610bf9565b61080c8383610cf6565b50505050565b6001600160a01b038116331461083b5760405163334bd91960e11b815260040160405180910390fd5b6108458282610d87565b505050565b7f9f2df0fed2c77648de5860a4cc508cd0818c85b8b8a1ab4ceeef8d981c8956a661087481610bf9565b6108458383610df2565b610886610c03565b5f81815260096020526040812080549091036108b557604051631c1e660560e01b815260040160405180910390fd5b5f600582015460ff1660028111156108cf576108cf611276565b146108ec5760405162eb863760e61b815260040160405180910390fd5b806004015442116109105760405163ee371c4560e01b815260040160405180910390fd5b60018101546001600160a01b0316331461093d57604051630ec1e4cd60e41b815260040160405180910390fd5b60058101805460ff19166002908117909155810154600680545f90610963908490611544565b9091555050600181015460028201546109899130916001600160a01b0390911690610c1e565b600181015460028201546040519081526001600160a01b039091169083907f7a482fdeb6bc9a1376f597068a214a7a39472bb2eff1b8cad21ba04f49ddca1b9060200160405180910390a3506109eb60015f5160206115835f395f51905f5255565b50565b5f6109f7610c03565b8160ff16600114158015610a0f57508160ff16600214155b15610a2d57604051630357013b60e51b815260040160405180910390fd5b5f8260ff16600114610a4757678ac7230489e80000610a51565b674563918244f400005b335f90815260208190526040902054909150811115610a8357604051631e9acf1760e31b815260040160405180910390fd5b610a8e333083610c1e565b8060065f828254610a9f9190611557565b909155505060078054905f610ab38361156a565b909155505f8181526009602052604090208181556001810180546001600160a81b0319163360ff60a01b191617600160a01b60ff88160217905560028101839055426003820181905591935090610b0c90601e90611557565b6004820181905560058201805460ff191690556040805184815260ff871660208201528082019290925251339185917f950b0f3f4973d015b461663fa9e9c8c419edd7982acaa0689d579cad7131fe2b9181900360600190a35050610b7d60015f5160206115835f395f51905f5255565b919050565b5f9182526005602090815260408084206001600160a01b0393909316845291905290205460ff1690565b6060600480546104969061139e565b5f33610524818585610c1e565b5f82815260056020526040902060010154610be281610bf9565b61080c8383610d87565b6108458383836001610e2a565b6109eb8133610efc565b610c0b610f35565b60025f5160206115835f395f51905f5255565b6001600160a01b038316610c4c57604051634b637e8f60e11b81525f60048201526024015b60405180910390fd5b6001600160a01b038216610c755760405163ec442f0560e01b81525f6004820152602401610c43565b610845838383610f66565b6001600160a01b038381165f908152600160209081526040808320938616835292905220545f1981101561080c5781811015610ce857604051637dc7a0d960e11b81526001600160a01b03841660048201526024810182905260448101839052606401610c43565b61080c84848484035f610e2a565b5f610d018383610b82565b610d80575f8381526005602090815260408083206001600160a01b03861684529091529020805460ff19166001179055610d383390565b6001600160a01b0316826001600160a01b0316847f2f8788117e7eff1d82e926ec794901d17c78024a50270940304540a733656f0d60405160405180910390a4506001610481565b505f610481565b5f610d928383610b82565b15610d80575f8381526005602090815260408083206001600160a01b0386168085529252808320805460ff1916905551339286917ff6391f5c32d9c69d2a47ea670b442974b53935d1edc7fd64eb21e047a839171b9190a4506001610481565b6001600160a01b038216610e1b5760405163ec442f0560e01b81525f6004820152602401610c43565b610e265f8383610f66565b5050565b6001600160a01b038416610e535760405163e602df0560e01b81525f6004820152602401610c43565b6001600160a01b038316610e7c57604051634a1406b160e11b81525f6004820152602401610c43565b6001600160a01b038085165f908152600160209081526040808320938716835292905220829055801561080c57826001600160a01b0316846001600160a01b03167f8c5be1e5ebec7d5bd14f71427d1e84f3dd0314c0f7b2291e5b200ac8c7c3b92584604051610eee91815260200190565b60405180910390a350505050565b610f068282610b82565b610e265760405163e2517d3f60e01b81526001600160a01b038216600482015260248101839052604401610c43565b5f5160206115835f395f51905f5254600203610f6457604051633ee5aeb560e01b815260040160405180910390fd5b565b6001600160a01b038316610f90578060025f828254610f859190611557565b909155506110009050565b6001600160a01b0383165f9081526020819052604090205481811015610fe25760405163391434e360e21b81526001600160a01b03851660048201526024810182905260448101839052606401610c43565b6001600160a01b0384165f9081526020819052604090209082900390555b6001600160a01b03821661101c5760028054829003905561103a565b6001600160a01b0382165f9081526020819052604090208054820190555b816001600160a01b0316836001600160a01b03167fddf252ad1be2c89b69c2b068fc378daa952ba7f163c4a11628f55a4df523b3ef8360405161107f91815260200190565b60405180910390a3505050565b5f6020828403121561109c575f5ffd5b81356001600160e01b0319811681146110b3575f5ffd5b9392505050565b5f81518084528060208401602086015e5f602082860101526020601f19601f83011685010191505092915050565b602081525f6110b360208301846110ba565b80356001600160a01b0381168114610b7d575f5ffd5b5f5f60408385031215611121575f5ffd5b61112a836110fa565b946020939093013593505050565b5f5f83601f840112611148575f5ffd5b50813567ffffffffffffffff81111561115f575f5ffd5b602083019150836020828501011115611176575f5ffd5b9250929050565b5f5f5f5f5f5f5f6080888a031215611193575f5ffd5b87359650602088013567ffffffffffffffff8111156111b0575f5ffd5b6111bc8a828b01611138565b909750955050604088013567ffffffffffffffff8111156111db575f5ffd5b6111e78a828b01611138565b909550935050606088013567ffffffffffffffff811115611206575f5ffd5b6112128a828b01611138565b989b979a50959850939692959293505050565b5f5f5f60608486031215611237575f5ffd5b611240846110fa565b925061124e602085016110fa565b929592945050506040919091013590565b5f6020828403121561126f575f5ffd5b5035919050565b634e487b7160e01b5f52602160045260245ffd5b8981526001600160a01b038916602082015260ff88166040820152606081018790526080810186905260a081018590525f600385106112d757634e487b7160e01b5f52602160045260245ffd5b60c082018590526001600160a01b03841660e08301526101206101008301819052611304908301846110ba565b9b9a5050505050505050505050565b5f5f60408385031215611324575f5ffd5b82359150611334602084016110fa565b90509250929050565b5f6020828403121561134d575f5ffd5b6110b3826110fa565b5f60208284031215611366575f5ffd5b813560ff811681146110b3575f5ffd5b5f5f60408385031215611387575f5ffd5b611390836110fa565b9150611334602084016110fa565b600181811c908216806113b257607f821691505b6020821081036113d057634e487b7160e01b5f52602260045260245ffd5b50919050565b858782375f868201601f60fa1b815285876001830137601f60fa1b600191870191820152838560028301375f930160020192835250909695505050505050565b634e487b7160e01b5f52604160045260245ffd5b601f82111561084557805f5260205f20601f840160051c8101602085101561144f5750805b601f840160051c820191505b8181101561146e575f815560010161145b565b5050505050565b815167ffffffffffffffff81111561148f5761148f611416565b6114a38161149d845461139e565b8461142a565b6020601f8211600181146114d5575f83156114be5750848201515b5f19600385901b1c1916600184901b17845561146e565b5f84815260208120601f198516915b8281101561150457878501518255602094850194600190920191016114e4565b508482101561152157868401515f19600387901b60f8161c191681555b50505050600190811b01905550565b634e487b7160e01b5f52601160045260245ffd5b8181038181111561048157610481611530565b8082018082111561048157610481611530565b5f6001820161157b5761157b611530565b506001019056fe9b779b17422d0df92223018b32b4d1fa46e071723d6817e2486d003becc55f00a264697066735822122043bdf5cbfa864708b0c6f99f92844567ef8948bc0ac0e4e4e0663a1fd6d5f9b764736f6c634300081c0033",
  "linkReferences": {},
  "deployedLinkReferences": {},
  "immutableReferences": {},
  "inputSourceName": "project/contracts/OrmuzConsortium.sol",
  "buildInfoId": "solc-0_8_28-2e25bbe5c7945cc9ffb066a8fd4d759ce51ca02b"
}